:100000000892FF1FB1490000604A0000604A0000EA
:10001000604A0000604A0000604A000000000000E2
:10002000000000000000000000000000604A000026
:10003000604A000000000000604A0000604A0000C2
:10004000712700008527000099270000AD270000D8
:10005000C1270000D5270000E9270000FD27000088
:100060001128000025280000392800004D28000034
:100070006128000075280000892800009D280000E4
:10008000B1280000C5280000D9280000ED28000094
:100090000129000015290000292900003D29000040
:1000A0005129000065290000792900008D290000F0
:1000B000A1290000B5290000C9290000DD290000A0
:1000C000F1290000052A0000192A00002D2A00004D
:1000D000412A0000552A0000692A00007D2A0000FC
:1000E000912A0000A52A0000B92A0000CD2A0000AC
:1000F000E12A0000F52A0000092B00001D2B00005A
:10010000312B0000452B0000592B00006D2B000007
:10011000812B0000952B0000A92B0000BD2B0000B7
:10012000D12B0000E52B0000F92B00000D2C000066
:10013000212C0000352C0000492C00005D2C000013
:10014000712C0000852C0000992C0000AD2C0000C3
:10015000C12C0000D52C0000E92C0000FD2C000073
:10016000112D0000252D0000392D00004D2D00001F
:10017000612D0000752D0000892D00009D2D0000CF
:10018000B12D0000C52D0000D92D0000ED2D00007F
:10019000012E0000152E0000292E00003D2E00002B
:1001A000512E0000652E0000792E00008D2E0000DB
:1001B000A12E0000B52E0000C92E0000DD2E00008B
:1001C000F12E0000052F0000192F00002D2F000038
:1001D000412F0000552F0000692F00007D2F0000E7
:1001E000912F0000A52F0000B92F0000CD2F000097
:1001F000E12F0000F52F0000093000001D30000045
:100200003130000045300000593000006D300000F2
:100210008130000095300000A9300000BD300000A2
:10022000D1300000E5300000F93000000D31000051
:100230002131000035310000493100005D310000FE
:10024000604A0000604A0000604A0000604A000006
:10025000604A0000604A0000604A0000604A0000F6
:10026000604A0000604A0000604A0000604A0000E6
:10027000604A0000604A0000604A0000604A0000D6
:10040000BFFFDFFFFFFEFFFFFFFFFFFFFFFFFFFF5D
:10041000FFFFFFFFFFFFFFFFFFFFFFFFFFFFFFFFEC
:1004200081F0004102E000BF83F0004330B54FEAA5
:1004300041044FEA430594EA050F08BF90EA020F12
:100440001FBF54EA000C55EA020C7FEA645C7FEAA5
:10045000655C00F0E2804FEA5454D4EB5555B8BFC8
:100460006D420CDD2C4480EA020281EA030382EA39
:10047000000083EA010180EA020281EA0303362DCB
:1004800088BF30BD11F0004F4FEA01314FF4801C9E
:100490004CEA113102D0404261EB410113F0004FB0
:1004A0004FEA03334CEA133302D0524263EB430367
:1004B00094EA050F00F0A780A4F10104D5F1200E05
:1004C0000DDB02FA0EFC22FA05F2801841F1000160
:1004D00003FA0EF2801843FA05F359410EE0A5F134
:1004E00020050EF1200E012A03FA0EFC28BF4CF065
:1004F000020C43FA05F3C01851EBE37101F000451B
:1005000007D54FF0000EDCF1000C7EEB00006EEB27
:100510000101B1F5801F1BD3B1F5001F0CD34908B1
:100520005FEA30004FEA3C0C04F101044FEA445208
:1005300012F5800F80F09A80BCF1004F08BF5FEA8F
:10054000500C50F1000041EB045141EA050130BD6F
:100550005FEA4C0C404141EB0101013C28BFB1F581
:10056000801FE9D291F0000F04BF01460020B1FACC
:1005700081F308BF2033A3F10B03B3F120020CDA9F
:100580000C3208DD02F1140CC2F10C0201FA0CF07D
:1005900021FA02F10CE002F11402D8BFC2F1200CE2
:1005A00001FA02F120FA0CFCDCBF41EA0C01904098
:1005B000E41AA2BF01EB0451294330BD6FEA0404E1
:1005C0001F3C1CDA0C340EDC04F11404C4F12002CC
:1005D00020FA04F001FA02F340EA030021FA04F3DE
:1005E00045EA030130BDC4F10C04C4F1200220FA35
:1005F00002F001FA04F340EA0300294630BD21FA73
:1006000004F0294630BD94F0000F83F4801306BF38
:1006100081F480110134013D4EE77FEA645C18BF2C
:100620007FEA655C29D094EA050F08BF90EA020FC3
:1006300005D054EA000C04BF1946104630BD91EABB
:10064000030F1EBF0021002030BD5FEA545C05D1BE
:100650004000494128BF41F0004130BD14F58004FD
:100660003CBF01F5801130BD01F0004545F0FE4171
:1006700041F470014FF0000030BD7FEA645C1ABFA6
:10068000194610467FEA655C1CBF0B46024650EADD
:10069000013406BF52EA033591EA030F41F4002109
:1006A00030BD00BF90F0000F04BF0021704730B58F
:1006B0004FF4806404F132044FF000054FF0000164
:1006C00050E700BF90F0000F04BF0021704730B525
:1006D0004FF4806404F1320410F0004548BF4042FA
:1006E0004FF000013EE700BF42004FEAE2014FEA4F
:1006F00031014FEA02701FBF12F07F4393F07F4F2A
:1007000081F06051704732F07F4208BF704793F02C
:100710007F4F04BF41F40021704730B54FF460743F
:1007200001F0004521F000411CE700BF50EA010242
:1007300008BF704730B54FF000050AE050EA0102EB
:1007400008BF704730B511F0004502D5404261EB5B
:1007500041014FF4806404F132045FEA915C3FF49C
:10076000D8AE4FF003025FEADC0C18BF03325FEA39
:10077000DC0C18BF033202EBDC02C2F1200300FAEA
:1007800003FC20FA02F001FA03FE40EA0E0021FA0F
:1007900002F11444BDE600BF70B54FF0FF0C4CF4FD
:1007A000E06C1CEA11541DBF1CEA135594EA0C0FAF
:1007B00095EA0C0F00F0DEF82C4481EA030621EAEA
:1007C0004C5123EA4C5350EA013518BF52EA033525
:1007D00041F4801143F4801338D0A0FB02CE4FF0D7
:1007E0000005E1FB02E506F00042E0FB03E54FF007
:1007F0000006E1FB03569CF0000F18BF4EF0010EFF
:10080000A4F1FF04B6F5007F64F5407404D25FEAFA
:100810004E0E6D4146EB060642EAC62141EA5551AD
:100820004FEAC52040EA5E504FEACE2EB4F1FD0CEF
:1008300088BFBCF5E06F1ED8BEF1004F08BF5FEA6D
:10084000500E50F1000041EB045170BD06F000461F
:1008500046EA010140EA020081EA0301B4EB5C04CC
:10086000C2BFD4EB0C0541EA045170BD41F48011C4
:100870004FF0000E013C00F3AB8014F1360FDEBFE9
:10088000002001F0004170BDC4F10004203C35DAC5
:100890000C341BDC04F11404C4F1200500FA05F348
:1008A00020FA04F001FA05F240EA020001F00042E9
:1008B00021F0004110EBD37021FA04F642EB06015F
:1008C0005EEA430E08BF20EAD37070BDC4F10C0489
:1008D000C4F1200500FA04F320FA05F001FA04F24D
:1008E00040EA020001F0004110EBD37041F1000139
:1008F0005EEA430E08BF20EAD37070BDC4F1200544
:1009000000FA05F24EEA020E20FA04F301FA05F2AB
:1009100043EA020321FA04F001F0004121FA04F253
:1009200020EA020000EBD3705EEA430E08BF20EA23
:10093000D37070BD94F0000F0FD101F0004640005D
:1009400041EB010111F4801F08BF013CF7D041EADF
:10095000060195F0000F18BF704703F000465200E3
:1009600043EB030313F4801F08BF013DF7D043EAB4
:100970000603704794EA0C0F0CEA135518BF95EA6A
:100980000C0F0CD050EA410618BF52EA4306D1D1F1
:1009900081EA030101F000414FF0000070BD50EA10
:1009A000410606BF1046194652EA430619D094EA9A
:1009B0000C0F02D150EA013613D195EA0C0F05D184
:1009C00052EA03361CBF104619460AD181EA0301D8
:1009D00001F0004141F0FE4141F470014FF0000090
:1009E00070BD41F0FE4141F4780170BD70B54FF02B
:1009F000FF0C4CF4E06C1CEA11541DBF1CEA1355AB
:100A000094EA0C0F95EA0C0F00F0A7F8A4EB05048C
:100A100081EA030E52EA03354FEA013100F0888083
:100A20004FEA03334FF0805545EA131343EA12634C
:100A30004FEA022245EA111545EA10654FEA002601
:100A40000EF000419D4208BF964244F1FD0404F5BA
:100A5000407402D25B084FEA3202B61A65EB030516
:100A60005B084FEA32024FF480104FF4002CB6EBD3
:100A7000020E75EB030E22BFB61A754640EA0C0053
:100A80005B084FEA3202B6EB020E75EB030E22BF93
:100A9000B61A754640EA5C005B084FEA3202B6EBD4
:100AA000020E75EB030E22BFB61A754640EA9C0093
:100AB0005B084FEA3202B6EB020E75EB030E22BF63
:100AC000B61A754640EADC0055EA060E18D04FEA21
:100AD000051545EA16754FEA06164FEAC30343EAC1
:100AE00052734FEAC2025FEA1C1CC0D111F4801F8E
:100AF0000BD141EA00014FF000004FF0004CB6E787
:100B000011F4801F04BF01430020B4F1FD0C88BF25
:100B1000BCF5E06F3FF6AFAEB5EB030C04BFB6EB30
:100B2000020C5FEA500C50F1000041EB045170BD23
:100B30000EF0004E4EEA113114EB5C04C2BFD4EB50
:100B40000C0541EA045170BD41F480114FF0000ED4
:100B5000013C90E645EA060E8DE60CEA135594EA50
:100B60000C0F08BF95EA0C0F3FF43BAF94EA0C0F53
:100B70000AD150EA01347FF434AF95EA0C0F7FF4C8
:100B800025AF104619462CE795EA0C0F06D152EA1C
:100B900003353FF4FDAE1046194622E750EA410600
:100BA00018BF52EA43067FF4C5AE50EA41047FF411
:100BB0000DAF52EA43057FF4EBAE12E74FEA410274
:100BC000B2F1E04324BFB3F5001CDCF1FE5C0DD9AB
:100BD00001F0004C4FEAC0024CEA5070B2F1004FF5
:100BE00040EB830008BF20F00100704711F0804FF8
:100BF00021D113F13872BCBF01F00040704741F4BD
:100C000080114FEA5252C2F11802C2F1200C10FAC0
:100C10000CF320FA02F018BF40F001004FEAC123A4
:100C20004FEAD32303FA0CFC40EA0C0023FA02F348
:100C30004FEA4303CCE77FEA625307D150EA01331E
:100C40001EBF4FF0FE4040F44000704701F00040EE
:100C500040F0FE4040F40000704700BF53B94AB96D
:100C6000002908BF00281CBF4FF0FF314FF0FF30B4
:100C700000F074B9ADF1080C6DE904CE00F006F88F
:100C8000DDF804E0DDE9022304B070472DE9F04708
:100C9000089D04468E46002B4DD18A42944669D960
:100CA000B2FA82F252B101FA02F3C2F1200120FA43
:100CB00001F10CFA02FC41EA030E94404FEA1C4891
:100CC000210CBEFBF8F61FFA8CF708FB16E341EA8D
:100CD000034306FB07F199420AD91CEB030306F113
:100CE000FF3080F01F81994240F21C81023E634434
:100CF0005B1AA4B2B3FBF8F008FB103344EA0344D8
:100D000000FB07F7A7420AD91CEB040400F1FF33EC
:100D100080F00A81A74240F207816444023840EA29
:100D20000640E41B00261DB1D4400023C5E9004362
:100D30003146BDE8F0878B4209D9002D00F0EF80E5
:100D40000026C5E9000130463146BDE8F087B3FA18
:100D500083F6002E4AD18B4202D3824200F2F98000
:100D6000841A61EB030301209E46002DE0D0C5E903
:100D7000004EDDE702B9FFDEB2FA82F2002A40F04F
:100D80009280A1EB0C014FEA1C471FFA8CFE012652
:100D9000200CB1FBF7F307FB131140EA01410EFBF6
:100DA00003F0884208D91CEB010103F1FF3802D29D
:100DB000884200F2CB804346091AA4B2B1FBF7F097
:100DC00007FB101144EA01440EFB00FEA64508D9BA
:100DD0001CEB040400F1FF3102D2A64500F2BB80F7
:100DE0000846A4EB0E0440EA03409CE7C6F1200746
:100DF000B34022FA07FC4CEA030C20FA07F401FA8C
:100E000006F31C43F9404FEA1C4900FA06F3B1FB14
:100E1000F9F8200C1FFA8CFE09FB181140EA014179
:100E200008FB0EF0884202FA06F20BD91CEB010116
:100E300008F1FF3A80F08880884240F28580A8F16E
:100E400002086144091AA4B2B1FBF9F009FB1011C0
:100E500044EA014100FB0EFE8E4508D91CEB01015E
:100E600000F1FF346CD28E456AD90238614440EA01
:100E70000840A0FB0294A1EB0E01A142C846A64681
:100E800056D353D05DB1B3EB080261EB0E0101FA0A
:100E900007F722FA06F3F1401F43C5E90071002667
:100EA0003146BDE8F087C2F12003D8400CFA02FCBD
:100EB00021FA03F3914001434FEA1C471FFA8CFECD
:100EC000B3FBF7F007FB10360B0C43EA064300FBBD
:100ED0000EF69E4204FA02F408D91CEB030300F15B
:100EE000FF382FD29E422DD9023863449B1B89B212
:100EF000B3FBF7F607FB163341EA034106FB0EF39B
:100F00008B4208D91CEB010106F1FF3816D28B4247
:100F100014D9023E6144C91A46EA004638E72E4613
:100F2000284605E70646E3E61846F8E64B45A9D20B
:100F3000B9EB020864EB0C0E0138A3E74646EAE77A
:100F4000204694E74046D1E7D0467BE7023B614428
:100F500032E7304609E76444023842E7704700BF91
:100F600080B584B000AF07F10803184600F044FDD7
:100F70003B46184600F06EFE2A492B4801F0A5F8C2
:100F80000023BB7230237B7200233B7205233B732B
:100F900007F10803184600F053FD00237B603B79FE
:100FA0006FF304033B717B68312262F310237B6093
:100FB000FB79012262F30713FB71FB79012262F3D3
:100FC0000303FB71BB79012262F30713BB7100239A
:100FD0003B703B796FF3C7133B713B46184600F0FB
:100FE00075FE00BF202001F039F80346012BF9D12E
:100FF00000220021042002F0EFF8012201210B2041
:1010000002F0EAF8502001F06FF84FF4404001F090
:10101000ADFA02F0ADF8052001F048F800BF103736
:10102000BD4680BD102211007777770780B586B066
:1010300000AF3B1D184601F0F9F90223FB800023A5
:10104000FB750FE0FB7D0B4A12F82300FB7D094A7C
:101050009B0013445B883A1D194601F0CBF8FB7DD9
:101060000133FB75FB7D032BECD900BF00BF1837A4
:10107000BD4680BD884C000080B584B000AF0346FB
:10108000FB710023FB7317E0FA79FB7B42FA03F351
:1010900003F00103002B0CD0FB7B0B4A12F823203A
:1010A000FB7B09499B000B445B881946104601F005
:1010B000A1FAFB7B0133FB73FB7B032BE4D900BF5D
:1010C00000BF1037BD4680BD884C000080B500AF22
:1010D000074BD3F88830064A43F47003C2F88830CF
:1010E00000F008F8024B00229A6000BF80BD00BFEC
:1010F00000ED00E080B487B000AF3B4B1B6803F00D
:101100000103012B03D1394B394A1A6002E0374BF6
:10111000384A1A60384B93F82630DBB203F00703E5
:10112000FB74FB7C052B57D801A252F823F000BFBB
:1011300049110000531100005B110000651100000F
:101140006D11000077110000284B1B682B4A1360BB
:1011500043E02A4B2A4A1A603FE0284B4FF40042F2
:101160001A603AE0254B264A1A6036E0234B4FF4CA
:1011700000421A6031E0204BD3F800311B0AC3F360
:101180000803FB601C4BD3F800311B0F03F00F0367
:10119000BB60194BD3F8003103F01F037B60164B83
:1011A000D3F8003103F08003002B02D1144B7B6194
:1011B00002E00E4B1B687B617B6801337A69B2FBEE
:1011C000F3F3FA68013203FB02F2BB680133B2FBAE
:1011D000F3F30A4A136000E000BF00BF1C37BD46AE
:1011E0005DF8047B704700BF840601400480FF1F48
:1011F0000024F400002D3101004005400080FF1F55
:1012000000127A0080B400AF064B40F223121A603D
:10121000044B43F210221A6000BFBD465DF8047B08
:10122000704700BF0004014080B400AF034B0022B0
:101230001A6000BFBD465DF8047B704700040140A2
:1012400080B400AF044B4FF42542A3F8FC2300BF49
:10125000BD465DF8047B70470038054080B400AFA0
:10126000044B4AF20152A3F8FC2300BFBD465DF8CF
:10127000047B70470038054080B483B000AF03465C
:10128000FB80FB88DB439AB20A4B03F54043B3F87B
:10129000FE339BB213409AB20649074B13439AB2EE
:1012A00001F54043A3F8FE2300BF0C37BD465DF8AF
:1012B000047B70470080044000A5FFFF80B483B02A
:1012C00000AF0346FB800A4B03F54043B3F8FE33FF
:1012D0009AB20749FB8813439AB201F54043A3F839
:1012E000FE2300BF0C37BD465DF8047B704700BF8E
:1012F0000080044080B400AF034B044A1A6100BF71
:10130000BD465DF8047B7047008004400000A5A541
:1013100080B400AF034B044A1A6100BFBD465DF8BC
:10132000047B7047008004400100A5A580B400AF95
:10133000054B76225A60044B7622DA6000BFBD4628
:101340005DF8047B704700BF0008054080B400AF23
:10135000054B77225A60044B7722DA6000BFBD4606
:101360005DF8047B704700BF0008054080B582B07F
:1013700000AF78607B6803F00103002B01D0FFF71A
:1013800041FF7B6803F00203002B01D0FFF7C0FF91
:101390007B6803F00403002B01D0FFF75FFF7B683D
:1013A00003F01003002B03D04AF20850FFF786FF2A
:1013B0007B6803F04003002B03D04AF20350FFF791
:1013C0007DFF7B6803F08003002B01D0FFF7BEFF99
:1013D00000BF0837BD4680BD80B582B000AF7860E1
:1013E0007B6803F00103002B01D0FFF71DFF7B6832
:1013F00003F00203002B01D0FFF77CFF7B6803F0B2
:101400000403002B01D0FFF71BFF7B6803F01003E0
:10141000002B03D04AF20850FFF72EFF7B6803F041
:101420004003002B03D04AF20350FFF725FF7B68EF
:1014300003F08003002B01D0FFF778FF00BF0837CF
:10144000BD4680BD80B485B000AF78600023FB60EE
:1014500002E0FB680133FB60FB687A689A42F8D8C7
:1014600000BF00BF1437BD465DF8047B704780B5F0
:1014700084B000AF03463960FB710023BB606FF09E
:101480000703FB600CE0FB79184600F0E7FD03461C
:10149000012B02D10023FB6006E0BB680133BB6077
:1014A000BB683A689A42EED2FB6818461037BD46D0
:1014B00080BD000080B588B000AF0346FB710023FB
:1014C000FB77514B1B68BB614F4B5B687B614E4B9D
:1014D0009B683B614C4BDB68FB60FB79002B13D0B6
:1014E000FB79012B10D0FB79022B0DD0FB79032B5C
:1014F0000AD0FB79042B07D0FB79052B04D040F2EE
:101500005721424803F022F93F4B03F54043B3F81B
:10151000FE339BB203F00103012B04D04FF416718C
:101520003A4803F013F93A4B93F82630DBB203F054
:101530000703052B02D0FB79052B2CD10123FB7768
:10154000314B1B6903F00103012B04D04FF41871D8
:101550002E4803F0FBF82C4B2E4A1A602A4B4FF012
:10156000FF325A60284B4FF0FF329A60264B4FF003
:10157000FF32DA60284B1A68254B1B6A1B0E03F0FA
:10158000070322FA03F31B09244AA2FB0323DB0906
:101590001846FFF757FF1E4AFB7982F826301E4B8C
:1015A0001A681B4B1B6A1B0E03F0070322FA03F396
:1015B0001B091A4AA2FB0323DB091846FFF742FF67
:1015C000FB7F012B1CD1104ABB6913600E4A7B695B
:1015D00053600D4A3B6993600B4AFB68D3600E4B26
:1015E0001A680B4B1B6A1B0E03F0070322FA03F366
:1015F0001B090A4AA2FB0323DB091846FFF722FF57
:1016000000BF2037BD4680BD00800440644A000012
:10161000004005400EFAFFFF0080FF1FC55A7C0AFC
:1016200080B588B000AF786039600023FB77A94BA4
:101630001B68BB61A74B5B687B61A64B9B683B61EA
:10164000A44BDB68FB603B6803F0E063002B28D011
:101650003B6803F0E063B3F1807F22D03B6803F086
:10166000E063B3F1007F1CD03B6803F0E063B3F1AB
:10167000407F16D03B6803F0E063B3F1806F10D079
:101680003B6803F0E063B3F1A06F0AD03B6803F05E
:10169000E063B3F1C06F04D040F2C6218E4803F07E
:1016A00055F83B6803F07003002B22D03B6803F031
:1016B0007003102B1DD03B6803F07003202B18D053
:1016C0003B6803F07003302B13D03B6803F07003CA
:1016D000402B0ED03B6803F07003502B09D03B68C1
:1016E00003F07003602B04D040F2C7217A4803F066
:1016F0002DF83B6803F4E023002B28D03B6803F46B
:10170000E023B3F5803F22D03B6803F4E023B3F538
:10171000003F1CD03B6803F4E023B3F5403F16D0F4
:101720003B6803F4E023B3F5802F10D03B6803F44B
:10173000E023B3F5A02F0AD03B6803F4E023B3F510
:10174000C02F04D04FF43271634802F0FFFF3B68B2
:1017500003F4E003002B28D03B6803F4E003B3F567
:10176000801F22D03B6803F4E003B3F5001F1CD0B8
:101770003B6803F4E003B3F5401F16D03B6803F465
:10178000E003B3F5800F10D03B6803F4E003B3F53A
:10179000A00F0AD03B6803F4E003B3F5C00F04D0F8
:1017A00040F2CA214C4802F0D1FF3B6803F0070326
:1017B000002B22D03B6803F00703012B1DD03B68B0
:1017C00003F00703022B18D03B6803F00703032B39
:1017D00013D03B6803F00703042B0ED03B6803F0E3
:1017E0000703052B09D03B6803F00703062B04D041
:1017F00040F2CB21384802F0A9FF3B6803F4E063D4
:10180000002B28D03B6803F4E063B3F5807F22D03F
:101810003B6803F4E063B3F5007F1CD03B6803F43E
:10182000E063B3F5407F16D03B6803F4E063B3F5A3
:10183000806F10D03B6803F4E063B3F5A06F0AD06B
:101840003B6803F4E063B3F5C06F04D04FF4337129
:10185000214802F07BFF3B6803F4E043002B28D0D3
:101860003B6803F4E043B3F5805F22D03B6803F4A8
:10187000E043B3F5005F1CD03B6803F4E043B3F5ED
:10188000405F16D03B6803F4E043B3F5804F10D0BF
:101890003B6803F4E043B3F5A04F0AD03B6803F480
:1018A000E043B3F5C04F04D040F2CD210A4802F026
:1018B0004DFF7B6803F0773323F0E043002B04D126
:1018C00040F2CF21044802F041FF024B03F54043B0
:1018D00004E000BF00800440644A0000B3F8FE3317
:1018E0009BB203F00103012B04D04FF434713C4848
:1018F00002F02CFF3B4B93F82630DBB203F00703DA
:10190000052B2CD10123FB77374B1B6903F0010317
:10191000012B04D040F2D721314802F017FF324B9F
:10192000324A1A60304B4FF0FF325A602E4B4FF064
:10193000FF329A602C4B4FF0FF32DA602C4B1A6862
:10194000284B1B6A1B0E03F0070322FA03F31B0943
:10195000284AA2FB0323DB091846FFF773FD214B3E
:101960001A6A7B68DB431A4039687B680B401D4963
:1019700013430B621E4B1A681A4B1B6A1B0E03F0B3
:10198000070322FA03F31B091A4AA2FB0323DB090C
:101990001846FFF757FDFB7F012B1CD1124ABB698C
:1019A0001360114A7B6953600F4A3B6993600E4A8A
:1019B000FB68D3600E4B1A680A4B1B6A1B0E03F0C0
:1019C000070322FA03F31B090A4AA2FB0323DB09DC
:1019D0001846FFF737FD00BF2037BD4680BD00BF6A
:1019E000644A000000400540008004400EFAFFFFFA
:1019F0000080FF1FC55A7C0A80B485B000AF7860B4
:101A00000023FB607B68002B03D16FF00203FB60B7
:101A10000EE07B6801221A707B6800229A707B6856
:101A200000225A707B688022DA707B6805221A7166
:101A3000FB6818461437BD465DF8047B704700000C
:101A400080B584B000AF78607B68002B03D16FF065
:101A50000203FB6092E07B681B78012B08D07B6857
:101A60001B78002B04D040F2A931474802F06EFEEB
:101A70007B685B78002B10D07B685B78102B0CD0D8
:101A80007B685B78202B08D07B685B78302B04D098
:101A900040F2AA313C4802F059FE7B689B78002B4B
:101AA00008D07B689B78402B04D040F2AB3136489D
:101AB00002F04CFE7B68DB78802B08D07B68DB78FB
:101AC000002B04D04FF46B712F4802F03FFE7B686F
:101AD0001B79012B24D07B681B79022B20D07B68DB
:101AE0001B79032B1CD07B681B79042B18D07B68D7
:101AF0001B79052B14D07B681B79062B10D07B68D3
:101B00001B79072B0CD07B681B79082B08D07B68CE
:101B10001B79092B04D040F2AD311B4802F016FEB0
:101B20001A4B03F54043B3F8FE339BB203F00103B5
:101B3000012B04D040F2AE31134802F007FE144AE4
:101B40007B681B7982F8A2307B68DA787B685B78E7
:101B50001343DAB27B689B780D491343DBB281F8FB
:101B600010347B681B78002B04D1012000F012F8A0
:101B7000F86003E0002000F00DF8F860FB681846FC
:101B80001037BD4680BD00BF644A0000008004409D
:101B90000040054080B584B000AF0346FB710023D0
:101BA000FB60FB79002B07D0FB79012B04D040F2BE
:101BB000CB31254802F0CAFD244B03F54043B3F86E
:101BC000FE339BB203F00103012B04D04FF4737179
:101BD0001D4802F0BBFDFB79002B26D11C4B93F86E
:101BE0002630DBB203F00703032B03D16FF00503AC
:101BF000FB6024E0164BD3F8003103F08003002B88
:101C00000ED1134B93F82A30DBB2002B03D16FF0C7
:101C10000503FB6013E00E4B012283F832200EE037
:101C20000B4B012283F8322009E0094B002283F894
:101C300032204FF480510820FFF719FCF860FB6850
:101C400018461037BD4680BD644A0000008004403D
:101C50000040054080B485B000AF78600023FB6091
:101C60007B68002B03D16FF00203FB6027E07B68E9
:101C700000225A607A6813796FF3C71313717A6878
:101C800013796FF3040313717A685368132161F3B6
:101C9000102353607A68D379012161F30713D3715C
:101CA0007A68D379012161F30303D3717A68937958
:101CB000012161F3071393717B6801221A70FB689D
:101CC00018461437BD465DF8047B704780B586B072
:101CD00000AF78607B68002B03D16FF002037B615B
:101CE00041E17B681B7923F07F03DBB2002B0BD033
:101CF0007B681B7923F07F03DBB2002B04D140F219
:101D0000DF419B4802F022FD7B681B79C3F304038B
:101D1000DBB20133182B04D94FF49C61944802F0D4
:101D200015FD7B685B68C3F308239BB20133B3F5F1
:101D3000F07F07D87B685B68C3F308239BB201334D
:101D4000132B04D840F2E141894802F0FFFC7B6884
:101D5000DB79C3F30313DBB20133102B07D87B68A5
:101D6000DB79C3F30313DBB20133012B04D840F258
:101D7000E2417F4802F0EAFC7B681B7923F07F0395
:101D8000DBB2002B02D07B4B1B6800E07A4B7A68F9
:101D90001279C2F30402D2B20132B3FBF2F33B6117
:101DA0007B685B68C3F308239BB25A1C3B6902FB48
:101DB00003F3FB603B69714A934203D83B69704A65
:101DC000934204D84FF49D61694802F0BFFCFB6860
:101DD0006C4A934203D8FB686B4A934204D240F2A8
:101DE000E941634802F0B2FC7B68DB79C3F303137B
:101DF000DBB20133FA68B2FBF3F3634A93420BD8C8
:101E00007B68DB79C3F30313DBB20133FA68B2FBFF
:101E1000F3F35E4A934204D240F2EA41544802F09E
:101E200095FC7B68DB79C3F30303DBB20133102B32
:101E300007D87B68DB79C3F30303DBB20133012BE3
:101E400004D840F2EB414A4802F080FC7B689B7961
:101E5000C3F30313DBB20133102B07D87B689B79E4
:101E6000C3F30313DBB20133012B04D840F2EC417E
:101E70003F4802F06BFC7B689B79C3F30313DBB232
:101E80000133FA68B2FBF3F33F4A93420BD87B6805
:101E90009B79C3F30313DBB20133FA68B2FBF3F3AC
:101EA0003A4A934204D240F2ED41314802F04EFCEE
:101EB0007B68DB79C3F30303DBB20133FA68B2FB5F
:101EC000F3F3314A93420BD87B68DB79C3F3030306
:101ED000DBB20133FA68B2FBF3F32C4A934204D22B
:101EE00040F2EE41224802F031FC7B681B78012B66
:101EF00008D07B681B78002B04D040F2EF411C48CF
:101F000002F024FC224B03F54043B3F8FE339BB2AE
:101F100003F00103012B04D04FF49E61144802F03A
:101F200015FC1C4BD3F8003123F080027B681B7931
:101F3000C3F3C013DBB2DB01DBB216491343C1F8B4
:101F40000031144A7B685B68C2F800317B681B78FB
:101F5000002B04D1012000F01FF8786103E000207D
:101F600000F01AF878617B6918461837BD4680BDC5
:101F7000644A00000480FF1F00127A0040787D014F
:101F80003F420F0000389C1C001C4E0EC0E1E400D4
:101F9000008004400040054080B584B000AF034697
:101FA000FB710023FB60FB79002B07D0FB79012B31
:101FB00004D040F20E51264802F0C8FB254B03F531
:101FC0004043B3F8FE339BB203F00103012B04D06E
:101FD00040F20F511E4802F0B9FBFB79002B10D1E3
:101FE0001D4B93F82630DBB203F00703052B03D11A
:101FF0006FF00503FB6025E0174B012283F82A20D0
:1020000020E0154BD3F8003103F08003002B06D1FC
:102010004FF480510820FFF72AFAF86005E04FF4EA
:1020200080510120FFF723FAF860FB68002B09D1EB
:10203000094B002283F82A204FF480512020FFF71B
:1020400016FAF860FB6818461037BD4680BD00BF21
:10205000644A0000008004400040054080B582B022
:1020600000AF0346FB71FB79002B05D0FB7943F0F1
:102070006903DBB2692B04D040F2BB51094802F07E
:1020800065FB094B93F83C30DAB2FB791340DBB2C5
:10209000002B14BF01230023DBB218460837BD46CE
:1020A00080BD00BF644A00000040054080B582B09A
:1020B00000AF0346FB71FB791846FFF7FBF9FFF70A
:1020C00019F800BF0837BD4680BD80B582B000AFAB
:1020D0007860396039687868FFF7A2FAFFF70AF884
:1020E00000BF0837BD4680BD80B584B000AF7860C2
:1020F0000023FB601E4B1B68012B04D040F207112C
:102100001C4802F023FB7B68F02B04D94FF4847148
:10211000184802F01BFB164B9B6823F0F0027B680B
:1021200003F0F003124913438B6015E0FB680133A1
:10213000FB60114B1A68114B1B6A1B0E03F007035F
:1021400022FA03F30E4AA2FB03239B0BFA689A427E
:1021500002D96FF0070307E0054B9B6803F0F0031B
:102160007A689A42E2D1002318461037BD4680BDF6
:1021700000040140A44A00000080FF1F0040054009
:102180005917B7D180B582B000AF78600B46FB70AD
:102190007B68002B05D07A68134B1343124A934295
:1021A00003D08421114802F0D1FAFB78002B06D02D
:1021B000FB78012B03D085210C4802F0C7FAFB788D
:1021C000012B07D10A4B5A687B68DB43084913404F
:1021D0004B6005E0064B5A6805497B6813434B602A
:1021E00000BF0837BD4680BD79FD0F0FE44A0000EF
:1021F0000080044080B586B000AF03463A60FB71B2
:102200000B46BB8000233B613B68002B03D16FF082
:1022100002033B61FFE0824BB3F8FC339BB203F057
:102220000103012B03D0FF217E4802F08FFAFB79D6
:10223000002B13D0FB79012B10D0FB79022B0DD092
:10224000FB79032B0AD0FB79042B07D0FB79052BF4
:1022500004D04FF48071734802F078FABB88002BE9
:1022600002D0BB88002B04D140F201116D4802F06E
:102270006DFA3B681B88002B08D03B681B88012B3C
:1022800004D04FF48171674802F060FA3B685B88C4
:10229000002B08D03B685B88022B04D040F203116E
:1022A000604802F053FA3B689B88002B08D03B68DB
:1022B0009B88042B04D04FF482715A4802F046FAEE
:1022C0003B68DB88002B0CD03B68DB88102B08D0E8
:1022D0003B68DB88202B04D040F20511514802F006
:1022E00035FA3B681B89002B09D03B681B89B3F585
:1022F000804F04D04FF483714A4802F027FA3B68BC
:102300005B89002B08D03B685B89402B04D040F2EE
:102310000711444802F01AFA3B689B89002B09D048
:102320003B689B89B3F5007F04D04FF484713D482E
:1023300002F00CFA3B68DB89002B09D03B68DB8993
:10234000B3F5805F04D040F20911364802F0FEF97F
:102350003B681B8A002B09D03B681B8AB3F5004FF2
:1023600004D04FF485712F4802F0F0F90023FB757B
:102370004EE0BA88FB7D22FA03F303F00103002B41
:1023800043D03B681A883B685B8813439AB23B682A
:102390009B8813439AB23B68DB8813439AB23B682D
:1023A0005B8913439AB23B689B8913439AB23B689B
:1023B000DB8913439AB23B681B891343FB8145F2C7
:1023C0007723BB813B681A8AFB891343FB81BB8956
:1023D0006FEA43436FEA5343BB81FA79124B1344CC
:1023E0001A01FB7D13449B00BB60BB681B889AB23B
:1023F000BB89DB439BB213409AB2F989BB890B407E
:102400009BB213439AB2BB681A80FB7D0133FB7504
:10241000FB7D0F2BADD93B6918461837BD4680BDF3
:1024200000380540244B0000F014000180B485B052
:1024300000AF78600023FB607B68002B03D16FF056
:102440000203FB601AE07B6800221A807B6800228E
:102450005A807B680022DA807B6800221A827B68BF
:1024600000221A817B6800225A817B6800229A81AF
:102470007B680022DA817B6800229A80FB6818461C
:102480001437BD465DF8047B7047000080B584B00A
:1024900000AF0346FB710B46BB8013467B80FB7984
:1024A000002B13D0FB79012B10D0FB79022B0DD020
:1024B000FB79032B0AD0FB79042B07D0FB79052B82
:1024C00004D040F27711264802F040F9BB88002B77
:1024D00002D0BB88002B04D14FF4BC71204802F01D
:1024E00035F97B880F2B0AD97B881F2B02D97B8873
:1024F0003B2B04D940F27911194802F027F9194B06
:10250000B3F8FC339BB203F00103012B04D04FF46A
:10251000BD71134802F01AF90023FB7317E0FB7B2F
:10252000012202FA03F39AB2BB8813409BB2002B3C
:102530000AD0FB791A01FB7B13449A000A4B13441F
:10254000BB60BB687A881A80FB7B0133FB73FB7B23
:102550000F2BE4D900BF00BF1037BD4680BD00BFC0
:10256000244B000000380540023C054080B582B095
:1025700000AF0346FB80FB88002B10D0FB88B3F52F
:10258000804F0CD0FB88B3F5004F08D0FB88B3F523
:10259000404F04D040F2CD11144802F0D7F8144B4C
:1025A000B3F8FC339BB203F00103012B04D04FF4CA
:1025B000E7710E4802F0CAF80D4BB3F8F8339BB23E
:1025C0001BB2C3F30D031AB2B7F9063023F47F53DD
:1025D00023F03F031BB213431AB2054B92B2A3F888
:1025E000F82300BF0837BD4680BD00BF244B000064
:1025F0000038054080B584B000AF03460A46FB7141
:102600001346BB80FB79002B13D0FB79012B10D034
:10261000FB79022B0DD0FB79032B0AD0FB79042B1D
:1026200007D0FB79052B04D040F22B210F4802F094
:102630008DF8BB88002B02D0BB88002B04D14FF44F
:102640000B710A4802F082F8FB791A01084B134417
:10265000FB60FB681B889AB2BB8813439AB2FB6885
:102660001A8000BF1037BD4680BD00BF244B00005C
:102670000838054080B584B000AF78600023FB6067
:102680007B68002B03D16FF00203FB6065E07B6881
:102690001B88B3F5007F03D3C321324802F056F8FC
:1026A0007B681B885B099BB21A4613465B00134488
:1026B0005B0020337A68B2F9022093420ED87B681F
:1026C0001B885B099BB21A4613465B0013445B00F0
:1026D00025337A68B2F90220934209D27B68B3F9B4
:1026E00002309BB21F2B03D96FF00203FB6034E072
:1026F0007B68B3F902301A461B4B13449B00BB6046
:10270000BB681B68C3F3080340F2FF1293420ED16B
:102710007B681B881A46BB681A607B68B3F9023075
:1027200019467B685B68114A42F8213015E07B68E6
:102730001B881A46BB681B68C3F308039A4209D179
:102740007B68B3F9023019467B685B68074A42F838
:10275000213002E06FF00103FB60FB681846103780
:10276000BD4680BD644B0000174401100880FF1F68
:1027700080B500AF024B1B68984700BF80BD00BF0B
:102780000880FF1F80B500AF024B5B68984700BF11
:1027900080BD00BF0880FF1F80B500AF024B9B6863
:1027A000984700BF80BD00BF0880FF1F80B500AF05
:1027B000024BDB68984700BF80BD00BF0880FF1F49
:1027C00080B500AF024B1B69984700BF80BD00BFBA
:1027D0000880FF1F80B500AF024B5B69984700BFC0
:1027E00080BD00BF0880FF1F80B500AF024B9B6912
:1027F000984700BF80BD00BF0880FF1F80B500AFB5
:10280000024BDB69984700BF80BD00BF0880FF1FF7
:1028100080B500AF024B1B6A984700BF80BD00BF68
:102820000880FF1F80B500AF024B5B6A984700BF6E
:1028300080BD00BF0880FF1F80B500AF024B9B6AC0
:10284000984700BF80BD00BF0880FF1F80B500AF64
:10285000024BDB6A984700BF80BD00BF0880FF1FA6
:1028600080B500AF024B1B6B984700BF80BD00BF17
:102870000880FF1F80B500AF024B5B6B984700BF1D
:1028800080BD00BF0880FF1F80B500AF024B9B6B6F
:10289000984700BF80BD00BF0880FF1F80B500AF14
:1028A000024BDB6B984700BF80BD00BF0880FF1F55
:1028B00080B500AF024B1B6C984700BF80BD00BFC6
:1028C0000880FF1F80B500AF024B5B6C984700BFCC
:1028D00080BD00BF0880FF1F80B500AF024B9B6C1E
:1028E000984700BF80BD00BF0880FF1F80B500AFC4
:1028F000024BDB6C984700BF80BD00BF0880FF1F04
:1029000080B500AF024B1B6D984700BF80BD00BF74
:102910000880FF1F80B500AF024B5B6D984700BF7A
:1029200080BD00BF0880FF1F80B500AF024B9B6DCC
:10293000984700BF80BD00BF0880FF1F80B500AF73
:10294000024BDB6D984700BF80BD00BF0880FF1FB2
:1029500080B500AF024B1B6E984700BF80BD00BF23
:102960000880FF1F80B500AF024B5B6E984700BF29
:1029700080BD00BF0880FF1F80B500AF024B9B6E7B
:10298000984700BF80BD00BF0880FF1F80B500AF23
:10299000024BDB6E984700BF80BD00BF0880FF1F61
:1029A00080B500AF024B1B6F984700BF80BD00BFD2
:1029B0000880FF1F80B500AF024B5B6F984700BFD8
:1029C00080BD00BF0880FF1F80B500AF024B9B6F2A
:1029D000984700BF80BD00BF0880FF1F80B500AFD3
:1029E000024BDB6F984700BF80BD00BF0880FF1F10
:1029F00080B500AF024BD3F88030984700BF80BD50
:102A00000880FF1F80B500AF024BD3F88430984791
:102A100000BF80BD0880FF1F80B500AF024BD3F818
:102A20008830984700BF80BD0880FF1F80B500AF89
:102A3000024BD3F88C30984700BF80BD0880FF1F41
:102A400080B500AF024BD3F89030984700BF80BDEF
:102A50000880FF1F80B500AF024BD3F89430984731
:102A600000BF80BD0880FF1F80B500AF024BD3F8C8
:102A70009830984700BF80BD0880FF1F80B500AF29
:102A8000024BD3F89C30984700BF80BD0880FF1FE1
:102A900080B500AF024BD3F8A030984700BF80BD8F
:102AA0000880FF1F80B500AF024BD3F8A4309847D1
:102AB00000BF80BD0880FF1F80B500AF024BD3F878
:102AC000A830984700BF80BD0880FF1F80B500AFC9
:102AD000024BD3F8AC30984700BF80BD0880FF1F81
:102AE00080B500AF024BD3F8B030984700BF80BD2F
:102AF0000880FF1F80B500AF024BD3F8B430984771
:102B000000BF80BD0880FF1F80B500AF024BD3F827
:102B1000B830984700BF80BD0880FF1F80B500AF68
:102B2000024BD3F8BC30984700BF80BD0880FF1F20
:102B300080B500AF024BD3F8C030984700BF80BDCE
:102B40000880FF1F80B500AF024BD3F8C430984710
:102B500000BF80BD0880FF1F80B500AF024BD3F8D7
:102B6000C830984700BF80BD0880FF1F80B500AF08
:102B7000024BD3F8CC30984700BF80BD0880FF1FC0
:102B800080B500AF024BD3F8D030984700BF80BD6E
:102B90000880FF1F80B500AF024BD3F8D4309847B0
:102BA00000BF80BD0880FF1F80B500AF024BD3F887
:102BB000D830984700BF80BD0880FF1F80B500AFA8
:102BC000024BD3F8DC30984700BF80BD0880FF1F60
:102BD00080B500AF024BD3F8E030984700BF80BD0E
:102BE0000880FF1F80B500AF024BD3F8E430984750
:102BF00000BF80BD0880FF1F80B500AF024BD3F837
:102C0000E830984700BF80BD0880FF1F80B500AF47
:102C1000024BD3F8EC30984700BF80BD0880FF1FFF
:102C200080B500AF024BD3F8F030984700BF80BDAD
:102C30000880FF1F80B500AF024BD3F8F4309847EF
:102C400000BF80BD0880FF1F80B500AF024BD3F8E6
:102C5000F830984700BF80BD0880FF1F80B500AFE7
:102C6000024BD3F8FC30984700BF80BD0880FF1F9F
:102C700080B500AF024BD3F80031984700BF80BD4C
:102C80000880FF1F80B500AF024BD3F8043198478E
:102C900000BF80BD0880FF1F80B500AF024BD3F896
:102CA0000831984700BF80BD0880FF1F80B500AF86
:102CB000024BD3F80C31984700BF80BD0880FF1F3E
:102CC00080B500AF024BD3F81031984700BF80BDEC
:102CD0000880FF1F80B500AF024BD3F8143198472E
:102CE00000BF80BD0880FF1F80B500AF024BD3F846
:102CF0001831984700BF80BD0880FF1F80B500AF26
:102D0000024BD3F81C31984700BF80BD0880FF1FDD
:102D100080B500AF024BD3F82031984700BF80BD8B
:102D20000880FF1F80B500AF024BD3F824319847CD
:102D300000BF80BD0880FF1F80B500AF024BD3F8F5
:102D40002831984700BF80BD0880FF1F80B500AFC5
:102D5000024BD3F82C31984700BF80BD0880FF1F7D
:102D600080B500AF024BD3F83031984700BF80BD2B
:102D70000880FF1F80B500AF024BD3F8343198476D
:102D800000BF80BD0880FF1F80B500AF024BD3F8A5
:102D90003831984700BF80BD0880FF1F80B500AF65
:102DA000024BD3F83C31984700BF80BD0880FF1F1D
:102DB00080B500AF024BD3F84031984700BF80BDCB
:102DC0000880FF1F80B500AF024BD3F8443198470D
:102DD00000BF80BD0880FF1F80B500AF024BD3F855
:102DE0004831984700BF80BD0880FF1F80B500AF05
:102DF000024BD3F84C31984700BF80BD0880FF1FBD
:102E000080B500AF024BD3F85031984700BF80BD6A
:102E10000880FF1F80B500AF024BD3F854319847AC
:102E200000BF80BD0880FF1F80B500AF024BD3F804
:102E30005831984700BF80BD0880FF1F80B500AFA4
:102E4000024BD3F85C31984700BF80BD0880FF1F5C
:102E500080B500AF024BD3F86031984700BF80BD0A
:102E60000880FF1F80B500AF024BD3F8643198474C
:102E700000BF80BD0880FF1F80B500AF024BD3F8B4
:102E80006831984700BF80BD0880FF1F80B500AF44
:102E9000024BD3F86C31984700BF80BD0880FF1FFC
:102EA00080B500AF024BD3F87031984700BF80BDAA
:102EB0000880FF1F80B500AF024BD3F874319847EC
:102EC00000BF80BD0880FF1F80B500AF024BD3F864
:102ED0007831984700BF80BD0880FF1F80B500AFE4
:102EE000024BD3F87C31984700BF80BD0880FF1F9C
:102EF00080B500AF024BD3F88031984700BF80BD4A
:102F00000880FF1F80B500AF024BD3F8843198478B
:102F100000BF80BD0880FF1F80B500AF024BD3F813
:102F20008831984700BF80BD0880FF1F80B500AF83
:102F3000024BD3F88C31984700BF80BD0880FF1F3B
:102F400080B500AF024BD3F89031984700BF80BDE9
:102F50000880FF1F80B500AF024BD3F8943198472B
:102F600000BF80BD0880FF1F80B500AF024BD3F8C3
:102F70009831984700BF80BD0880FF1F80B500AF23
:102F8000024BD3F89C31984700BF80BD0880FF1FDB
:102F900080B500AF024BD3F8A031984700BF80BD89
:102FA0000880FF1F80B500AF024BD3F8A4319847CB
:102FB00000BF80BD0880FF1F80B500AF024BD3F873
:102FC000A831984700BF80BD0880FF1F80B500AFC3
:102FD000024BD3F8AC31984700BF80BD0880FF1F7B
:102FE00080B500AF024BD3F8B031984700BF80BD29
:102FF0000880FF1F80B500AF024BD3F8B43198476B
:1030000000BF80BD0880FF1F80B500AF024BD3F822
:10301000B831984700BF80BD0880FF1F80B500AF62
:10302000024BD3F8BC31984700BF80BD0880FF1F1A
:1030300080B500AF024BD3F8C031984700BF80BDC8
:103040000880FF1F80B500AF024BD3F8C43198470A
:1030500000BF80BD0880FF1F80B500AF024BD3F8D2
:10306000C831984700BF80BD0880FF1F80B500AF02
:10307000024BD3F8CC31984700BF80BD0880FF1FBA
:1030800080B500AF024BD3F8D031984700BF80BD68
:103090000880FF1F80B500AF024BD3F8D4319847AA
:1030A00000BF80BD0880FF1F80B500AF024BD3F882
:1030B000D831984700BF80BD0880FF1F80B500AFA2
:1030C000024BD3F8DC31984700BF80BD0880FF1F5A
:1030D00080B500AF024BD3F8E031984700BF80BD08
:1030E0000880FF1F80B500AF024BD3F8E43198474A
:1030F00000BF80BD0880FF1F80B500AF024BD3F832
:10310000E831984700BF80BD0880FF1F80B500AF41
:10311000024BD3F8EC31984700BF80BD0880FF1FF9
:1031200080B500AF024BD3F8F031984700BF80BDA7
:103130000880FF1F80B500AF024BD3F8F4319847E9
:1031400000BF80BD0880FF1F80B500AF024BD3F8E1
:10315000F831984700BF80BD0880FF1F80B500AFE1
:10316000024BD3F8FC31984700BF80BD0880FF1F99
:1031700080B500AF164B03F54043B3F8FE339BB266
:1031800003F00203022B04D040F23F41114801F04A
:10319000DDFA0F4B03F5404393F80234DBB25BB228
:1031A00023F03F035BB243F00F035AB2084BD2B295
:1031B00003F5404383F80224054B03F540431022F6
:1031C00083F80F241E2001F091FA0023184680BDD9
:1031D00000800440A84B000090B587B000AFF860B5
:1031E000B9607A600023FB75FB68002B04D0FB6894
:1031F00043F00F030F2B03D0AA21294801F0A6FAB0
:10320000BB68072B03D9AB21254801F09FFA7B68E7
:10321000072B03D9AC21224801F098FA214B5B68B7
:10322000772B35D0AD211E4801F090FA30E0FB68D5
:1032300003F00103002B25D0FB7DDB00BB75BB7DBC
:1032400004337B75174B1A68BB7D072199407B7D42
:10325000072000FA03F30B43DB431A40BB7DB96838
:1032600099407B7D786800FA03F31943BB7D072002
:1032700098407B7D072404FA03F303430B4009497C
:1032800013430B60FB685B08FB60FB7D0133FB7540
:10329000FB68002BCBD100BF00BF1C37BD4690BDE3
:1032A000E84B0000000805402DE9B04F96B000AF94
:1032B000F862B9627A623B626FF002037B65FA6A78
:1032C0005D4B9A4210D0FA6A5C4B9A420CD0FA6A73
:1032D0005B4B9A4208D0FA6A5A4B9A4204D040F2A9
:1032E0005B11594801F032FABB6A3B657B6AFB64AB
:1032F0003B6A002B00F09A803B6D002B00F096801B
:10330000FB6C002B00F09280FB6ADB6803F4004347
:10331000002B14BF01230023DBB2BB643A6D1346BC
:103320009B0013445B001946BB6CC3F10202FB6CAB
:1033300002FB03F3DB00B1FBF3F35A1D434BA3FB8A
:103340000223DB08013B7B647B6CFF2B6ED83A6A5F
:103350007B6C1360BB6F002B66D0BB6C0022BB6123
:10336000FA610023D7E906010246D2F102023A616E
:103370000A4663EB02037B617B6C0022BB60FA6050
:10338000D7E902120B4613F1010A134643F1000B71
:10339000D7E904010B460AFB03F2034603FB0BF3D8
:1033A00013440246A2FB0A452B441D46FB6C002237
:1033B0003B607A60D7E90001034603FB05F20B4648
:1033C00004FB03F313440246A4FB02894B449946D1
:1033D0004FF000024FF000034FEAC90343EA58736D
:1033E0004FEAC802C7E90E23386DFDF75BF90446C2
:1033F0000D46D7E90E01FDF799F902460B46204626
:103400002946FDF7F3FA02460B4610461946FDF72A
:10341000D5FB07EE100AF7EE007A77EE677AC7ED74
:103420000D7ABB6F7A6B1A6000237B657B6D184643
:103430005837BD46BDE8B08F00D0014000D40140F0
:103440000010024000140240284C0000CDCCCCCC2F
:103450002DE9B04F8EB000AF78613961FA60BB6082
:103460006FF002037B637B69444A934210D07B690F
:10347000434A93420CD07B69424A934208D07B690D
:10348000414A934204D040F29511404801F05EF960
:103490003B693B63FB68FB62BB68002B67D03B6BFF
:1034A000002B64D0FB6A002B61D03A6B13469B0063
:1034B00013445B001A46FB6A9B00B2FBF3F305332F
:1034C000334AA2FB0323DB08013BBB62BB6A002B30
:1034D0004DD0BB6AFF2B4AD8BB68BA6A1A60BB6D75
:1034E000002B42D0BB6A00223B607A60D7E9001211
:1034F0000B4613F10108134643F10009FB6A002251
:103500009A4693460AFB09F208FB0BF31344A8FB07
:103510000A452B441D464FF000024FF00003AB005C
:1035200043EA9473A200C7E90823386BFDF7BAF8A1
:1035300004460D46D7E90801FDF7F8F802460B46A8
:1035400020462946FDF752FA02460B461046194618
:10355000FDF734FB07EE100AF7EE007A77EE677A94
:10356000C7ED077ABB6DFA691A6000237B637B6B3A
:1035700018463837BD46BDE8B08F00BF00D00140C7
:1035800000D401400010024000140240284C00000A
:10359000CDCCCCCC2DE9F04F9BB000AFF862B96236
:1035A0007A623B626A4B07F134040FCB84E80F0068
:1035B0006FF002037B66FA6A664B9A4210D0FA6A91
:1035C000654B9A420CD0FA6A644B9A4208D0FA6A68
:1035D000634B9A4204D04FF4E771624801F0B6F8A9
:1035E000BB6A3B667B6AFB653B6A002B00F0A980E7
:1035F0003B6E002B00F0A580FB6D002B00F0A1803E
:10360000FB6A5B6903F46003BB65BB6D002B14D0E0
:10361000BB6DB3F5001F10D0BB6DB3F5800F0CD0A0
:10362000BB6DB3F5C00F08D0BB6DB3F5400F04D030
:1036300040F2D9114B4801F089F8BB6D5B0D5B007E
:10364000483307F12002134433F8343CBB653A6E2B
:1036500013469B0013445B001946FA6DBB6D02FBD9
:1036600003F35B00B1FBF3F35A1D3F4BA3FB0223B3
:10367000DB08013B7B657B6DFF2B62D83A6A7B6D73
:103680001360D7F89030002B59D0BB6D0022BB617E
:10369000FA617B6D00223B617A61D7E904120B4627
:1036A0005D1C134643F10006D7E906010B4605FBF6
:1036B00003F2034603FB06F313440246A2FB05ABE9
:1036C0005B449B46FB6D0022BB60FA60D7E90201B8
:1036D000034603FB0BF20B460AFB03F313440246BB
:1036E000AAFB02894B44994618EB08033B6049EB5F
:1036F00009037B60D7E90034C7E91234386EFCF760
:10370000D1FF04460D46D7E91201FDF70FF8024636
:103710000B4620462946FDF769F902460B4610463E
:103720001946FDF74BFA07EE100AF7EE007A77EE2E
:10373000677AC7ED117AD7F890307A6C1A60002357
:103740007B667B6E18466C37BD46BDE8F08F00BFC8
:10375000684C000000D0014000D40140001002403D
:1037600000140240284C0000CDCCCCCC2DE9B04F49
:10377000A4B000AF78653965FA64BB646FF00203EA
:10378000C7F88C307A6D904B9A4210D07A6D8F4B7F
:103790009A420CD07A6D8E4B9A4208D07A6D8D4B3E
:1037A0009A4204D040F20F218B4800F0CFFF3B6DCE
:1037B000C7F88830FB6CC7F88430BB6C002B00F076
:1037C000FC80D7F8B030002B00F0F780D7F88830B5
:1037D000002B00F0F280D7F88430002B00F0ED8051
:1037E0007B6DDB6803F40043002B14BF012300232F
:1037F000DBB2C7F88030D7F88030C3F10202D7F8C7
:10380000843002FB03F3DA00D7F88830B3FBF2F31D
:10381000013BFB67FB6FFF2B00F2CF80D7F88030B6
:103820000022BB63FA630023D7E90E010246D2F1FE
:1038300002023A630A4663EB02037B63FB6F0022DA
:10384000BB62FA62D7E90A120B4613F1010A13466A
:1038500043F1000BD7E90C010B460AFB03F20346C8
:1038600003FB0BF313440246A2FB0A452B441D46FF
:10387000D7F8843000223B627A62D7E90801034618
:1038800003FB05F20B4604FB03F313440246A4FBBF
:1038900002894B4499464FF000024FF000034FEA73
:1038A000C90343EA58734FEAC802C7E91C23D7E9A2
:1038B0001C234FF000004FF00001190241EA126191
:1038C0001002D7F888300022BB61FA61D7E90623DD
:1038D000FDF7C4F902460B461346803BFB66FB6EC0
:1038E0007F2B6AD8BB6CFA6F1A60D7F8B030FA6ECB
:1038F0001A60D7F8B430002B5CD0D7E91C014FF028
:1039000000024FF000030B0243EA10630202C7E912
:103910001C23D7F8883000223B617A61FB6E0022BD
:10392000BB60FA60D7E902120B4680333B60134656
:1039300043F100037B60D7E904452B46D7E90089B2
:10394000424602FB03F24B46214601FB03F31344BC
:1039500022464146A2FB01127A640A463A647A6C16
:1039600013447B64D7E91034C7E91834C7E9183425
:10397000D7E91801FCF7DAFE04460D46D7E91C0129
:10398000FCF7D4FE02460B4620462946FDF72EF8EA
:1039900002460B4610461946FDF710F907EE100ACD
:1039A000F7EE007A77EE677AC7ED177AD7F8B4307A
:1039B000FA6D1A600023C7F88C30D7F88C3018469F
:1039C0009037BD46BDE8B08F00D0014000D4014023
:1039D0000010024000140240284C00002DE9B04FB6
:1039E0009CB000AFF863B9637A633B636FF0020386
:1039F000FB66FA6B714B9A4210D0FA6B704B9A428D
:103A00000CD0FA6B6F4B9A4208D0FA6B6E4B9A420D
:103A100004D04FF416716D4800F098FEBB6BBB6686
:103A20007B6B7B663B6B002B00F0C180D7F890303E
:103A3000002B00F0BC80BB6E002B00F0B8807B6ECA
:103A4000002B00F0B4807B6E9A00BB6EB3FBF2F3E8
:103A5000013B3B663B6E002B00F0A9803B6EFF2BC9
:103A600000F2A5803B6E0022BB61FA61D7E9061225
:103A70000B460133BB62134643F10003FB627B6ECE
:103A800000223B627A62D7E90A010B463A6A02FBDE
:103A900003F27B6AC7E90A01014601FB03F3134401
:103AA000BA6A396AA2FB01452B441D464FF0000259
:103AB0004FF00003AB0043EA9473A200C7E916235A
:103AC000D7E916234FF000004FF00001190241EA38
:103AD00012611002BB6E00223B617A61D7E90423B8
:103AE000FDF7BCF802460B461346803B7B657B6DB9
:103AF0007F2B5CD83B6B3A6E1A60D7F890307A6DAA
:103B00001A60D7F89430002B4FD0D7E916014FF048
:103B100000024FF000030B0243EA10630202C7E900
:103B20001623BB6E0022BB60FA607B6D00223B60F7
:103B30007A60D7E900120B4613F1800A134643F16D
:103B4000000BD7E902010B460AFB03F2034603FB15
:103B50000BF313440246A2FB0A894B449946C7E97A
:103B60001289C7E91289D7E91201FCF7DFFD044683
:103B70000D46D7E91601FCF7D9FD02460B46204653
:103B80002946FCF733FF02460B4610461946FDF75F
:103B900015F807EE100AF7EE007A77EE677AC7EDB0
:103BA000117AD7F894307A6C1A600023FB66FB6EAA
:103BB00018467037BD46BDE8B08F00BF00D0014049
:103BC00000D401400010024000140240284C0000C4
:103BD0002DE9F04FA9B000AF78653965FA64BB6490
:103BE000A14B07F15C040FCB84E80F006FF00203D8
:103BF000C7F89C307A6D9D4B9A4210D07A6D9C4BE1
:103C00009A420CD07A6D9B4B9A4208D07A6D9A4BAF
:103C10009A4204D040F29F21984800F097FD3B6DF6
:103C2000C7F89830FB6CC7F89430BB6C002B00F0E1
:103C30001481D7F8C830002B00F00F81D7F89830E6
:103C4000002B00F00A81D7F89430002B00F005819A
:103C50007B6D5B6903F46003C7F89030D7F8903050
:103C6000002B18D0D7F89030B3F5001F13D0D7F839
:103C70009030B3F5800F0ED0D7F89030B3F5C00F69
:103C800009D0D7F89030B3F5400F04D040F2A62108
:103C90007A4800F05BFDD7F890305B0D5B0058333D
:103CA00007F14802134433F8443CC7F89030D7F882
:103CB0009420D7F8903002FB03F35A00D7F89830DD
:103CC000B3FBF2F3013BC7F88C30D7F88C30FF2BF5
:103CD00000F2C380D7F890300022BB63FA63D7F8B4
:103CE0008C3000223B637A63D7E90C120B465D1CD3
:103CF000134643F10006D7E90E010B4605FB03F21C
:103D0000034603FB06F313440246A2FB05AB5B44E8
:103D10009B46D7F894300022BB62FA62D7E90A01C9
:103D2000034603FB0BF20B460AFB03F31344024664
:103D3000AAFB02894B44994618EB08033B6049EB08
:103D400009037B60D7E90034C7E92034D7E9202391
:103D50004FF000004FF00001190241EA1261100219
:103D6000D7F8983000223B627A62D7E90823FCF743
:103D700075FF02460B461346803BFB67FB6F7F2BAC
:103D80006BD8BB6CD7F88C201A60D7F8C830FA6FA4
:103D90001A60D7F8CC30002B5CD0D7E920014FF067
:103DA00000024FF000030B0243EA10630202C7E96E
:103DB0002023D7F898300022BB61FA61FB6F002204
:103DC0003B617A61D7E904120B468033BB6013462E
:103DD00043F10003FB60D7E906452B46D7E902898A
:103DE000424602FB03F24B46214601FB03F3134418
:103DF00022464146A2FB01127A640A463A647A6C72
:103E000013447B64D7E91034C7E91C34C7E91C3478
:103E1000D7E91C01FCF78AFC04460D46D7E92001CE
:103E2000FCF784FC02460B4620462946FCF7DEFDE3
:103E300002460B4610461946FCF7C0FE07EE100A74
:103E4000F7EE007A77EE677AC7ED1B7AD7F8CC30B9
:103E5000FA6E1A600023C7F89C30D7F89C301846D9
:103E6000A437BD46BDE8F08F684C000000D001408B
:103E700000D401400010024000140240284C000011
:103E800080B588B002AFF860B9607A603B604FF0EF
:103E9000FF337B61FB68154A93420BD0FB68144AE1
:103EA000934207D0FB68134A934203D0FB68124A3F
:103EB00093420AD17B6A01933B6A00933B687A681C
:103EC000B968F868FFF752FC78617B69002B08D06D
:103ED0007B6A00933B687A68B968F868FFF7E4F991
:103EE00078617B6918461837BD4680BD00D0014017
:103EF00000D40140001002400014024080B588B098
:103F000002AFF860B9607A603B604FF0FF337B61CD
:103F1000FB68154A93420BD0FB68144A934207D0C2
:103F2000FB68134A934203D0FB68124A93420AD1BA
:103F30007B6A01933B6A00933B687A68B968F868CA
:103F4000FFF74CFD78617B69002B08D07B6A0093FA
:103F50003B687A68B968F868FFF77AFA78617B6934
:103F600018461837BD4680BD00D0014000D401403E
:103F7000001002400014024080B588B002AFF86023
:103F8000B9607A603B604FF0FF337B61FB68154A94
:103F900093420BD0FB68144A934207D0FB68134A44
:103FA000934203D0FB68124A93420AD17B6A019381
:103FB0003B6A00933B687A68B968F868FFF708FEC7
:103FC00078617B69002B08D07B6A00933B687A6834
:103FD000B968F868FFF7DEFA78617B691846183728
:103FE000BD4680BD00D0014000D401400010024019
:103FF0000014024080B483B000AF084B1A68084B2D
:104000001B6A1B0903F0070322FA03F37B607B683A
:1040100018460C37BD465DF8047B70470080FF1FD3
:104020000040054080B586B000AF78607B68154AD7
:10403000934210D07B68144A93420CD07B68134A99
:10404000934208D07B68124A934204D04FF45171D6
:10405000104800F07BFBFFF7CDFF78617B689B6920
:1040600003F003035B00012202FA03F33B617A6968
:104070003B69B2FBF3F3FB60FB6818461837BD469B
:1040800080BD00BF00D0014000D4014000100240BC
:1040900000140240284C000080B485B000AF786066
:1040A0006FF00203FB607B68002B25D07B68002249
:1040B0001A607B6800225A607B6800229A607B68E5
:1040C0004FF41652DA607B6800221A617B68002286
:1040D0005A617B6800229A617B680022DA617B6802
:1040E00000221A627B684FF000425A627B684FF4EC
:1040F00080729A620023FB60FB6818461437BD4645
:104100005DF8047B7047000080B588B000AFF860B0
:10411000B9607A606FF00203FB61BB68002B00F0AE
:10412000EC80FB68774A934210D0FB68764A934252
:104130000CD0FB68754A934208D0FB68744A9342DE
:1041400004D040F22741734800F000FBBB681B68B5
:10415000B3F5805F08D0BB681B68002B04D04FF418
:1041600085616C4800F0F2FABB689B68B3F5006F9C
:1041700008D0BB689B68002B04D040F229416548F9
:1041800000F0E4FABB689B69B3F5C06F0DD0BB6863
:104190009B69B3F5806F08D0BB689B69002B04D086
:1041A00040F22A415B4800F0D1FABB681B69002B42
:1041B00009D0BB681B69B3F5805F04D040F22B4186
:1041C000544800F0C3FABB685B69002B09D0BB6898
:1041D0005B69B3F5005F04D040F22C414D4800F01C
:1041E000B5FABB68DB69B3F5004F08D0BB68DB6983
:1041F000002B04D040F22D41464800F0A7FABB68DE
:104200001B6AB3F1805F08D0BB681B6A002B04D027
:1042100040F22E413F4800F099FABB685B6A002BE0
:1042200009D0BB685B6AB3F1004F04D040F22F4164
:10423000384800F08BFABB689B6AB3F5007F09D061
:10424000BB689B6AB3F5807F04D04FF48661314828
:1042500000F07CFABB689A69BB681B691A43BB68AB
:104260001B6A1A43BB68DB691A43BB685B6A13436A
:10427000BB61BB681A68BB689B681A43BB685B6913
:1042800013437B61BB689B6AB3F5007F02D14FF497
:10429000007300E000233B61FB68BA69DA60FB68E9
:1042A0007A691A61FB683A695A61BB681B68002B1E
:1042B00021D1BB685B68002B10D0BB685B68012B09
:1042C0000CD0BB685B68022B08D0BB685B68032B13
:1042D00004D040F23E410F4800F038FABB685A68FB
:1042E000FB689A61BB68DB687A681946F86800F079
:1042F00065F9F86101E00023FB61FB69184620378E
:10430000BD4680BD00D0014000D4014000100240F5
:1043100000140240284C000080B586B000AFF86061
:10432000B9601346FB71FB68234A934210D0FB68C7
:10433000224A93420CD0FB68214A934208D0FB6882
:10434000204A934204D04FF496611F4800F0FEF9D2
:10435000FB79002B07D0FB79012B04D040F2B1414F
:10436000194800F0F3F9BB68002B04D0BB6843F098
:10437000EF03EF2B04D040F2B241134800F0E6F90E
:10438000BB689BB27B617B69002B10D0FB79012B52
:1043900006D1FB68DA687B691A43FB68DA6006E0DD
:1043A000FB68DA687B69DB431A40FB68DA6000BFB0
:1043B0001837BD4680BD00BF00D0014000D4014089
:1043C0000010024000140240284C000080B582B06A
:1043D00000AF786039607B68174A934210D07B68E1
:1043E000164A93420CD07B68154A934208D07B68EA
:1043F000144A934204D040F2C641134800F0A6F993
:104400003B68002B05D03A68104B13430F4A934288
:1044100004D040F2C7410C4800F098F97B681A6854
:104420003B681340002B14BF01230023DBB2184666
:104430000837BD4680BD00BF00D0014000D4014018
:104440000010024000140240284C0000EB01010063
:1044500080B582B000AF786039607B681F4A9342B4
:1044600010D07B681E4A93420CD07B681D4A934251
:1044700008D07B681C4A934204D040F2DF411B48BD
:1044800000F064F93B68002B05D03A68184B1343E1
:10449000174A934204D04FF49C61144800F056F937
:1044A0003B6803F00B03002B08D07B68DA683B689D
:1044B0001B0403F430231A437B68DA603B6803F47F
:1044C0008073002B05D07B68DB6843F480127B6827
:1044D000DA6000BF0837BD4680BD00BF00D0014094
:1044E00000D401400010024000140240284C00009B
:1044F000EB01010080B582B000AF78607B680E4AA6
:10450000934210D07B680D4A93420CD07B680C4AD2
:10451000934208D07B680B4A934204D040F2056175
:10452000094800F013F97B68043302331B889BB2FF
:1045300018460837BD4680BD00D0014000D4014078
:104540000010024000140240284C000080B584B0E6
:1045500000AF78600B467B807B680433FB607B6830
:10456000114A934210D07B68104A93420CD07B686A
:104570000F4A934208D07B680E4A934204D040F21F
:1045800016610D4800F0E2F87B88B3F5007F04D394
:1045900040F21761084800F0D9F8FB687A881A8061
:1045A00000BF1037BD4680BD00D0014000D401409F
:1045B0000010024000140240284C000080B58CB06E
:1045C00002AFF860B9607A600023BB614FF6FF73F9
:1045D0007B61BB68002B04D140F242613E4800F091
:1045E000B5F8FB683D4A934210D0FB683C4A9342C1
:1045F0000CD0FB683B4A934208D0FB683A4A93428E
:1046000004D040F24361344800F0A0F8F868FFF7A6
:1046100009FD3862FB68DB6803F08073FB61FB69AE
:10462000002B25D1FB685B6903F02003FB61FB696C
:10463000002B0ED107F118027B68019307F11403D8
:1046400000931346BA68396AF868FFF719FC786274
:104650001CE007F118027B68019307F11403009333
:104660001346BA68396AF868FFF786FC78620DE08D
:1046700007F118027B68019307F1140300931346B6
:10468000BA68396AF868FFF739FC78627B6A002BF0
:104690001CD1FB689B6823F47F42BB691B029BB261
:1046A0001A43FB689A607B697F2B0FD8FB68DB6835
:1046B00043F00052FB68DA60FB689B6823F07F02DE
:1046C0007B6903F07F031A43FB689A607B6A184694
:1046D0002837BD4680BD00BF284C000000D00140F7
:1046E00000D40140001002400014024080B485B0A4
:1046F00000AF7860114B1A68114B1B6A1B0E03F058
:104700000703DA400F4B13440F4AA2FB03239B0D10
:10471000FB6007E0FB68BB6000BFBB685A1EBA6065
:10472000002BFAD17B685A1E7A60002BF2D100BFB1
:1047300000BF1437BD465DF8047B70470080FF1F43
:10474000004005407F9698006BCA5F6B80B483B0D1
:1047500000AF78603960FEE780B483B000AF0346F5
:10476000FB80B7F90630002B0BDBFB8803F01F0240
:104770000749B7F906305B09012000FA02F241F857
:10478000232000BF0C37BD465DF8047B704700BF97
:1047900000E100E080B483B000AF0346FB80B7F9CE
:1047A0000630002B0CDBFB8803F01F020749B7F92A
:1047B00006305B09012000FA02F2603341F8232041
:1047C00000BF0C37BD465DF8047B704700E100E098
:1047D00080B483B000AF03463960FB80B7F9063080
:1047E000002B0ADB3B68DAB20C49B7F9063012013C
:1047F000D2B20B4483F800230AE03B68DAB20849DE
:10480000FB8803F00F03043B1201D2B20B441A766B
:1048100000BF0C37BD465DF8047B704700E100E047
:1048200000ED00E080B582B000AF0346FB8000BF22
:1048300080210748FFF7CAFD0346002BF8D0FB880C
:1048400019460348FFF782FE00BF0837BD4680BD0A
:1048500000D4014080B582B000AF78607B68002B47
:1048600011D00AE07B685A1C7A6093F900309BB241
:10487000DBB29BB21846FFF7D5FF7B6893F9003097
:10488000002BEFD100E000BF0837BD4680BD00001F
:1048900080B500AF03210748FFF798FD0346012BC1
:1048A00002D10448FFF726FE0B210248FFF7D0FD96
:1048B00000BF80BD00D4014080B58EB000AFC720DE
:1048C000FCF754FDFCF74CFBFCF7B0FB252208215C
:1048D0000020FDF7DBFD242210210020FDF7D6FD8E
:1048E00001214FF00070FDF74DFC07F10803184659
:1048F000FFF7D2FB0323FB604FF4E1337B614FF4FE
:1049000000437B6207F10803002219462548FFF7A0
:10491000FBFB0346002B03D00120FCF7ADFBFEE7B9
:1049200000237B8040F21B133B801F4B7B603B4688
:104930001846FDF79FFEB7F902301846FFF72AFF29
:10494000B7F902300F211846FFF742FFB7F90230DE
:104950001846FFF701FFC720FCF73EFD01222C217E
:104960001048FFF7D9FC1148FFF774FF20210D48CC
:10497000FFF72CFD0346012BF8D10A48FFF7BAFDDB
:104980000346FB8600BF80210648FFF71FFD034654
:10499000002BF8D0FB8E9BB219460248FFF7D6FDDC
:1049A000E4E700BF00D4014091480000784C0000CB
:1049B0001E491F4A1F4B9A42BEBF51F8040B42F8D2
:1049C000040BF8E71C491D4A1D4B9A42BEBF51F823
:1049D000040B42F8040BF8E71A491B4A00209142E5
:1049E000BCBF41F8040BFAE71849194A002091426C
:1049F000BCBF41F8040BFAE716484FF0770101609D
:104A000015484FF07701016014484FF48851016058
:104A100010484FF0760101600F484FF076010160B9
:104A2000FCF754FBFFF748FF70470000A04C000064
:104A30000080FF1F0080FF1FA04C000000000F201F
:104A400000000F200080FF1F0882FF1F00000F20C2
:104A500000000F20040805400C0805400008054030
:044A6000FEE700BFAE
:104A64002E2F2E2E2F2E2E2F2E2E2F2E2E2F2E2E5D
:104A74002F2E2E2F647269766572732F686333321A
:104A84005F6C6C5F6472697665722F7372632F68F2
:104A94006333325F6C6C5F636C6B2E6300000000E9
:104AA4002E2F2E2E2F2E2E2F2E2E2F2E2E2F2E2E1D
:104AB4002F2E2E2F647269766572732F68633332DA
:104AC4005F6C6C5F6472697665722F7372632F68B2
:104AD4006333325F6C6C5F65666D2E6300000000AB
:104AE4002E2F2E2E2F2E2E2F2E2E2F2E2E2F2E2EDD
:104AF4002F2E2E2F647269766572732F686333329A
:104B04005F6C6C5F6472697665722F7372632F6871
:104B14006333325F6C6C5F6663672E630000000072
:104B24002E2F2E2E2F2E2E2F2E2E2F2E2E2F2E2E9C
:104B34002F2E2E2F647269766572732F6863333259
:104B44005F6C6C5F6472697665722F7372632F6831
:104B54006333325F6C6C5F6770696F2E63000000B3
:104B64002E2F2E2E2F2E2E2F2E2E2F2E2E2F2E2E5C
:104B74002F2E2E2F647269766572732F6863333219
:104B84005F6C6C5F6472697665722F7372632F68F1
:104B94006333325F6C6C5F696E74657272757074C6
:104BA400732E63002E2F2E2E2F2E2E2F2E2E2F2ED1
:104BB4002E2F2E2E2F2E2E2F647269766572732F50
:104BC400686333325F6C6C5F6472697665722F73ED
:104BD40072632F686333325F6C6C5F7077632E632C
:104BE400000000002E2F2E2E2F2E2E2F2E2E2F2E95
:104BF4002E2F2E2E2F2E2E2F647269766572732F10
:104C0400686333325F6C6C5F6472697665722F73AC
:104C140072632F686333325F6C6C5F7372616D2EE5
:104C2400630000002E2F2E2E2F2E2E2F2E2E2F2EF1
:104C34002E2F2E2E2F2E2E2F647269766572732FCF
:104C4400686333325F6C6C5F6472697665722F736C
:104C540072632F686333325F6C6C5F757361727457
:104C64002E630000200040005D008000BA000001B7
:104C74007401000248656C6C6F20576F726C64217C
:104C84000D0A0000030008000300100003002000C8
:044C940003004000D9
:084C9800F4BFFF7F01000000E2
:04000003000049B1FF
:00000001FF
